:0400000080312A28F9
:100008007E1480314E010D0CF300F30C730C013992
:10001800F400170CF500F50C750C0139740503197B
:10002800162817281A288731802780314E010D0E8F
:100038000139F300170E01397305031924282528FF
:1000480028288631A82680317E10090080312C2886
:10005800B030840087308500A030860000308700EB
:100068000030FF000C308731BC278031F03084002D
:10007800203085000030FE000130FF008731C8279E
:100088008031F601F701F801F901FA0158308400CE
:10009800003085001430FE000030FF008731C8278B
:1000A80080317E10400180315928510111170530E7
:1000B8009300101F602861285D287E01B801C301E4
:1000C800CE01B901C401CF01BC01C701D201BB01F6
:1000D800C601D101BA01C501D001400192019301C5
:1000E80094011A149A101A119A1587319F27803192
:1000F800FF30400193008731602780310B178B1741
:10010800A0304001A0000030A1000C30A200003057
:10011800A30087310F2780314001E201DE01DF01B2
:100128000030DB000030DA000030D9000030D800A1
:10013800E801E901E1016330A0000030A1000530C9
:10014800A2000030A30087313A278031112A6608BF
:10015800CB00CC01CD01CE016508CF00D001D10183
:10016800D2010830CF35D00DD10DD20D890BB6286C
:100178006408D300D401D501D6011030D335D40D8D
:10018800D50DD60D890BC2285308CF045408D004C6
:100198005508D1045608D2044B084F04D8004C081F
:1001A8005004D9004D085104DA004E085204DB000F
:1001B80067080319E028E128E9286708CB00CC0183
:1001C8004B08DE004C08DF00ED280030DE0001306F
:1001D800DF005B08B2005A08B1005908B00058089F
:1001E800AF005F08B4005E08B300F030B5002030FF
:1001F800B6006830CB004B08B70084318C248031BE
:100208004001CC004C08D700570803190C290D29C8
:1002180018298130CB004B08EA006808CB004B084E
:10022800EB00E101E10A2E2AC030CB004B08EA00BE
:10023800E1012E2A6608CB00CC01CD01CE0165086C
:10024800CF00D001D101D2010830CF35D00DD10D6A
:10025800D20D890B29296408D300D401D501D60110
:100268001030D335D40DD50DD60D890B352953084B
:10027800CF045408D0045508D1045608D2044B08BA
:100288004F04D8004C085004D9004D085104DA0036
:100298004E085204DB0067080319532954295C29C6
:1002A8006708CB00CC014B08DE004C08DF00602952
:1002B8000030DE000130DF009130CB004B08EA004F
:1002C8005E08CB004B08EB006A30A0000030A100AC
:1002D8000230A2000030A30087310F278031F030B0
:1002E8004001A0002030A1005F08A3005E08A20022
:1002F80087313A27803140015B08C1005A08C000A5
:100308005908BF005808BE005F08C3005E08C20055
:10031800F030C4002030C5008631682680314001A5
:10032800CB004B08D700570803199B299C2918298B
:100338008030CB004B08EA001C296608CB00CC01B2
:10034800CD01CE016508CF00D001D101D20108301E
:10035800CF35D00DD10DD20D890BAC296408D3004F
:10036800D401D501D6011030D335D40DD50DD60D15
:10037800890BB8295308CF045408D0045508D10470
:100388005608D2044B084F04D8004C085004D90032
:100398004D085104DA004E085204DB000030D8053D
:1003A800F030D905FF30DA050030DB055B08BB000B
:1003B8005A08BA005908B9005808B80082315022C2
:1003C80080314001CB004B08D70057080319ED29AD
:1003D800EE2918299C29F030BE002030BF00683073
:1003E800CB004B08C0008631DC2680314001CC00B0
:1003F8004C08D70057080319022A032A18290D297F
:100408008331232380314001CB004B08D7005708A4
:1004180003190F2A102A18299C2940016308CB00C8
:10042800CC014C08003A03191A2A2E2A4B08803AA4
:100438000319AB28013A03191E29033A0319A12904
:10044800013A0319EF29073A0319042A3B3A031919
:100458004E2A2E2A6A30A0000030A1006108013E11
:10046800A200003003180130A30087310F27803124
:10047800400161080319412A422A9028F030A0005F
:100488002030A1006908A3006808A20087310F275F
:100498008031902880312A2800304001A3000030A4
:1004A800A2005530A1005530A000A401A40AA5015E
:1004B800853100258231003A031D632A642A662AA1
:1004C8000030222BAA308731D4278231003A031D0D
:1004D8006E2A6F2A702A642A00304001A300003077
:1004E800A2002A30A100AA30A000A401A40AA501F4
:1004F800853100258231003A031D832A842A852A02
:10050800642A55308731D4278231003A031D8D2A59
:100518008E2A8F2A642A00304001A3000030A200EE
:100528005530A1005530A000A401A40AA5018531C9
:1005380000258231003A031DA22AA32AA42A642A8C
:1005480080308731D4278231003A031DAC2AAD2A86
:10055800AE2A642A00304001A3000030A2005530C2
:10056800A1005530A000A401A40AA50185310025E9
:100578008231003A031DC12AC22AC32A642AAA303A
:100588008731D4278231003A031DCB2ACC2ACD2AC1
:10059800642A00304001A3000030A2002A30A100E4
:1005A800AA30A000A401A40AA50185310025823142
:1005B800003A031DE02AE12AE22A642A55308731ED
:1005C800D4278231003A031DEA2AEB2AEC2A642A4E
:1005D80040013B08A3003A08A2003908A1003808E6
:1005E800A000A401A40AA501853100258231003AA2
:1005F800031DFF2A002B012B642A30308731D427B2
:100608008231003A031D092B0A2B0B2B642A003078
:100618004001B2000030B1000030B0000030AF003F
:10062800FF30BC003C08B300863121268231003AF5
:10063800031D1F2B202B212B642A013008000030BA
:100648004001A3000030A2005530A1005530A000A1
:10065800A401A40AA501853100258331003A031DB0
:10066800362B372B392B0030F52BAA308731D4277E
:100678008331003A031D412B422B432B372B00308B
:100688004001A3000030A2002A30A100AA30A00037
:10069800A401A40AA501853100258331003A031D70
:1006A800562B572B582B372B55308731D42783316E
:1006B800003A031D602B612B622B372B0030400161
:1006C800A3000030A2005530A1005530A000A401BD
:1006D800A40AA501853100258331003A031D752B35
:1006E800762B772B372B80308731D4278331003A0C
:1006F800031D7F2B802B812B372B00304001A3005B
:100708000030A2005530A1005530A000A401A40A71
:10071800A501853100258331003A031D942B952BC3
:10072800962B372BAA308731D4278331003A031D03
:100738009E2B9F2BA02B372B00304001A3000030AD
:10074800A2002A30A100AA30A000A401A40AA50191
:10075800853100258331003A031DB32BB42BB52B0B
:10076800372B55308731D4278331003A031DBD2BF1
:10077800BE2BBF2B372B00304001A3000030A20056
:100788005530A1005530A000A401A40AA501853167
:1007980000258331003A031DD22BD32BD42B372BC2
:1007A80010308731D4278331003A031DDC2BDD2B31
:1007B800DE2B372B00304001B2000030B100003092
:1007C800B0000030AF00FF30B8003808B300863101
:1007D80021268331003A031DF22BF32BF42B372B00
:1007E8000130080000304001A3000030A20055305D
:1007F800A1005530A000A401A40AA5018531002557
:100808008331003A031D092C0A2C0C2C00308B2C48
:10081800AA308731D4278331003A031D142C152CB4
:10082800162C0A2C00304001A3000030A2002A3008
:10083800A100AA30A000A401A40AA50185310025C1
:100848008331003A031D292C2A2C2B2C0A2C5530D5
:100858008731D4278331003A031D332C342C352CAF
:100868000A2C00304001A3000030A2005530A1003E
:100878005530A000A401A40AA501853100258331C3
:10088800003A031D482C492C4A2C0A2CA0308731E9
:10089800D4278331003A031D522C532C542C0A2C94
:1008A80040013B08A3003A08A2003908A100380813
:1008B800A000A401A40AA501853100258331003ACE
:1008C800031D672C682C692C0A2C40013C088731D1
:1008D800D4278331003A031D722C732C742C0A2CF4
:1008E80040013B08B2003A08B1003908B0003808A6
:1008F800AF003C08BD003D08B30086312126833196
:10090800003A031D882C892C8A2C0A2C01300800F7
:100918004001BA01BB013408BD003308BC003208ED
:10092800A3003108A2003008A1002F08A000A401EC
:10093800A501853100258431003A031DA42CA52C7E
:10094800EC2C40013708860087010030C03FC13FCA
:100958000030FF2C3A083507B8003B08363DB9008F
:1009680038088600390887000D0881000130BA0769
:100978000030BB3D0130B80038088C070130BC029C
:100988000030BD3B0C08031DCA2CCB2CEC2C3C08BA
:100998003D040319D02CD12CEC2C0030AF070130CA
:1009A800B03D0030B13D0030B23D3208A3003108FF
:1009B800A2003008A1002F08A000A401A5018531DC
:1009C80000258431003A031DEA2CEB2CEC2CA52CD5
:1009D80040013C083D04031DF22CF32CAE2C87315A
:1009E8009F27843140013708860087013308C03FBC
:1009F8003408C13F01300800FF304001A005FF3036
:100A0800A1050730A2050030A305250803190D2DFF
:100A18000E2D102DA217182DFF30A005FF30A105AF
:100A28007F30A2050030A305240803191C2D1D2DB5
:100A38001F2D2217272DFF30A005FF30A105BF303D
:100A4800A2050030A3050030AD008030AC000030B6
:100A5800AB000030AA001030A6002608AE0020081F
:100A68002A05A60021082B05A70022082C05A800A6
:100A780023082D05A9002908280427042604031D96
:100A8800462D492D40011A144B2D40011A109A1475
:100A98009A100130AD36AC0CAB0CAA0C890B4E2D5C
:100AA8000130AE022E08031D5A2D5B2D332D1A1569
:100AB8001A1120088C000130080000304001A30002
:100AC8000030A2005530A1005530A000A401A40AAE
:100AD800A501853100258531003A031D742D752D3A
:100AE800772D0030C02DAA308731D4278531003AC0
:100AF800031D7F2D802D812D752D00304001A30011
:100B08000030A2002A30A100AA30A000A401A40A43
:100B1800A501853100258531003A031D942D952DB9
:100B2800962D752D55308731D4278531003A031D10
:100B38009E2D9F2DA02D752D00304001A300003063
:100B4800A2005530A1005530A000A401A40AA501B7
:100B5800853100258531003A031DB32DB42DB52DFF
:100B6800752DF0308731D4278531003A031DBD2D0E
:100B7800BE2DBF2D752D0130080000304001A300A7
:100B88000030A2005530A1005530A000A401A40AED
:100B9800A501853100258531003A031DD42DD52DB9
:100BA800D72D0030202EAA308731D4278531003A3E
:100BB800031DDF2DE02DE12DD52D00304001A300D0
:100BC8000030A2002A30A100AA30A000A401A40A83
:100BD800A501853100258531003A031DF42DF52D39
:100BE800F62DD52D55308731D4278531003A031D90
:100BF800FE2DFF2D002ED52D00304001A300003022
:100C0800A2005530A1005530A000A401A40AA501F6
:100C1800853100258531003A031D132E142E152E1B
:100C2800D52D90308731D4278531003A031D1D2EEC
:100C38001E2E1F2ED52D013008004001B601612E51
:100C48003208A3003108A2003008A1002F08A00034
:100C5800A401A501853100258631003A031D352EF2
:100C6800362E382E0030672E40010D08B4003408A7
:100C7800B7003208A3003108A2003008A1002F08ED
:100C8800A000A401A40AA501A50A85310025863182
:100C9800003A031D502E512E522E362E8030400120
:100CA8003305B40080303705B50035083406031D18
:100CB8005E2E5F2E612EB601B60A36080319652E20
:100CC800662E242E013008004001C901CA014308DC
:100CD800C8004208C7009D2E4108BB004008BA0062
:100CE8003F08B9003E08B8004908440786004A088A
:100CF800453D87000108C6004608BC008331F6233D
:100D08008631003A031D892E8A2E8C2E0030A72E9C
:100D180001304001C9070030CA3D0130BE0700302C
:100D2800BF3D0030C03D0030C13D0130C70200303A
:100D3800C83B47084804031DA22EA32E702E8731F6
:100D48009F2786310130080040019A160130F602CB
:100D58000030F73B42011D1DB22EB32EB72E1908E5
:100D68004E011712DB2E9D1CBA2EBB2EBE2E4E0135
:100D78001712DB2E1908F0007008F20078084001FD
:100D88005C07F00079085D3DF10070088600710885
:100D98008700720881000130F8070030F93D7608B5
:100DA8007704031DD82ED92EDB2E4E01171208000A
:100DB8008531C1258631003A031DE32EE42EE62E47
:100DC80000300E2F00304001B2000030B10000307A
:100DD800B0000030AF000230B3000030B4003F086C
:100DE800B6003E08B5004008C1004108B70084318C
:100DF8008C248631003A031D022F032F042FE42E82
:100E0800853161258631003A031D0B2F0C2F0D2FDC
:100E1800E42E01300800400160080319142F152F33
:100E2800162F392F2108DD002008DC00F801F90110
:100E38002308F7002208F6000130A4002408E00087
:100E48001A164E01971542019E164E0197192D2F1D
:100E58002E2F292F42019E1C322F332F2E2F9E1604
:100E680040011A12E001F801F90108004001600888
:100E780003193F2F402F412F5F2F2108DD00200845
:100E8800DC00F801F9012308F7002208F600013018
:100E9800A4002408E0004E01171642011D164E0159
:100EA800171A572F582F532F42011D1240019A121B
:100EB800E001F801F9010800003042019C002230ED
:100EC8009B001E159F1540019A1794177E0126084E
:100ED800C0390538A6007D014B08E7391038CB002A
:100EE8000730CB0442019E131E131E129D171F12BA
:100EF80040019A121A120800780840015C0786001F
:100F080079085D3D8700010842019A000130F80721
:100F18000030F93D0130F6020030F73B76087704DF
:100F2800031D972F982F9E2F4001E001F801F9012A
:100F38004E019711080000304001A3000030A200C4
:100F48000030A1000030A000A401A40AA501A50A50
:100F580085310025873108003B3438344534003466
:100F680046346C3473346834503472346734123411
:100F7800FE0012001E000130FE020030FF3B7F0819
:100F88007E04031DBD2F003464008001013101304F
:100F9800FE020030FF3B7F087E04031DC92F00348A
:100FA8004001A000930120088D009A119A158D0127
:080FB800FF3093000130080036
:020000040001F9
:04000E00ED3F272774
:04001400FF1FFF3F8C
:00000001FF
